:100000000C942A000C94C9080C94FC080C942F0939
:100010000C9447000C9447000C9447000C94470044
:100020000C9447000C9447000C9447000C94470034
:100030000C9447000C9447000C9447000C94470024
:100040000C94C00C0C9447000C9447000C9447008F
:100050000C94470011241FBECFE5D8E0DEBFCDBF12
:1000600012E0A0E6B0E0E8E3FBE402C005900D92E8
:10007000A839B107D9F712E0A8E9B2E001C01D9292
:10008000A43AB107E1F70E9448240C949A250C94F5
:100090000000EF92FF920F931F937B018C0120E0F1
:1000A00030E040E05FE40E94F50388238CF0C80153
:1000B000B70120E030E040E05FE40E94C1010E940F
:1000C00055049B01AC01205030404040504806C0D0
:1000D000C801B7010E9455049B01AC01B901CA01D6
:1000E0001F910F91FF90EF900895A0E0B0E0EBE733
:1000F000F0E00C946325DC012B01FA019C91923015
:1001000008F439C1EB018881823008F433C194309E
:1001100069F4843009F02FC111969C91119789815F
:10012000981709F428C1ACE6B1E025C1843009F480
:1001300021C18230A9F4923009F01DC19A01AD01AC
:1001400088E0EA010990AE01E90109929E0181501F
:10015000C1F7E201898111969C918923818308C1AD
:10016000923009F407C112962D903C901397EB0141
:100170008A819B811496AD90BD90CD90DC901797AD
:10018000EC80FD800E811F819101281B390BB90184
:1001900037FF04C066277727621B730B6032710537
:1001A0000CF061C0121613066CF537014801062EDB
:1001B00004C096948794779467940A94D2F721E0C8
:1001C00030E040E050E004C0220F331F441F551FB1
:1001D0006A95D2F721503040404050402E213F21B7
:1001E00040235123211531054105510521F021E01E
:1001F00030E040E050E079018A01E628F72808293C
:1002000019293CC0232BD1F1260E371E350146019A
:10021000062E04C096948794779467940A94D2F734
:1002200021E030E040E050E004C0220F331F441FC3
:10023000551F6A95D2F721503040404050402A2146
:100240003B214C215D21211531054105510521F04E
:1002500021E030E040E050E059016A01A628B728CB
:10026000C828D9280BC0821593052CF01C01AA249C
:10027000BB24650103C0EE24FF24870111969C91E5
:10028000D20111968C91981709F445C0992339F041
:10029000A80197012A193B094C095D0906C0A6016E
:1002A00095012E193F09400B510B57FD08C01182D3
:1002B0003382228224833583468357831DC081E0A5
:1002C00081833382228288279927DC01821B930B4A
:1002D000A40BB50B84839583A683B7830DC0220F2F
:1002E000331F441F551F24833583468357838281E0
:1002F000938101979383828324813581468157813D
:10030000DA01C9010197A109B1098F5F9F4FAF4F72
:10031000BF4328F30BC0918333822282EA0CFB1C7B
:100320000C1D1D1DE482F5820683178383E0808304
:10033000248135814681578157FF1AC0C901AA27F8
:1003400097FDA095BA2F81709070A070B0705695EF
:10035000479537952795822B932BA42BB52B848318
:100360009583A683B7838281938101969383828349
:10037000DF0101C0D201CD01CDB7DEB7E2E10C94BF
:100380007F25A0E2B0E0E7ECF1E00C946F256983F3
:100390007A838B839C832D833E834F835887E9E048
:1003A000EE2EF12CEC0EFD1ECE010196B7010E943F
:1003B00046068E010F5E1F4FCE010596B8010E94C2
:1003C00046068A8991E089278A8BC701B801AE0168
:1003D000475E5F4F0E9475000E947105A096E6E09F
:1003E0000C948B25A0E2B0E0E8EFF1E00C946F25CF
:1003F00069837A838B839C832D833E834F835887C5
:10040000F9E0EF2EF12CEC0EFD1ECE010196B701A6
:100410000E9446068E010F5E1F4FCE010596B80161
:100420000E944606C701B801AE01475E5F4F0E94B9
:1004300075000E947105A096E6E00C948B25A0E261
:10044000B0E0E5E2F2E00C94632569837A838B8364
:100450009C832D833E834F835887CE010196BE0136
:10046000675F7F4F0E944606CE010596BE016F5E14
:100470007F4F0E9446069985923088F089898230A4
:10048000C8F0943019F4823051F404C0843029F457
:10049000923081F48CE691E0C6C0923049F420E0BD
:1004A0009A858A89981321E02A87CE010996BBC0D4
:1004B000823049F420E09A858A89981321E02A8BBA
:1004C000CE014196B0C02D843E844F8458886D88FB
:1004D0007E888F88988CEE24FF248701AA24BB2471
:1004E000650140E050E060E070E0E0E0F0E0C10174
:1004F00081709070892BE9F0E60CF71C081D191D1E
:100500009A01AB012A0D3B1D4C1D5D1D80E090E062
:10051000A0E0B0E0E614F7040805190520F481E036
:1005200090E0A0E0B0E0BA01A901480F591F6A1F8E
:100530007B1FAA0CBB1CCC1CDD1C97FE08C081E0F5
:1005400090E0A0E0B0E0A82AB92ACA2ADB2A3196B6
:10055000E032F10549F0660C771C881C991C569412
:10056000479437942794C3CFFA85EA892B893C892D
:100570008B859C85280F391F2E5F3F4F17C0CA01FE
:1005800081709070892B61F016950795F794E79428
:1005900080E090E0A0E0B0E8E82AF92A0A2B1B2BC3
:1005A00076956795579547952F5F3F4F77FDE7CF36
:1005B0000CC0440F551F661F771F17FD4160EE0CDE
:1005C000FF1C001F111F21503040403090E05907A0
:1005D00090E0690790E4790760F32B8F3C8FDB0193
:1005E000CA018F779070A070B07080349105A1051A
:1005F000B10561F447FD0AC0E114F10401051105DC
:1006000029F0405C5F4F6F4F7F4F40781A8EFE1786
:1006100011F081E08A8F4D8F5E8F6F8F78A383E01A
:10062000898FCE0149960E947105A096E2E10C9453
:100630007F25A8E1B0E0EFE1F3E00C946B2569833E
:100640007A838B839C832D833E834F835887B9E0C5
:10065000EB2EF12CEC0EFD1ECE010196B7010E948F
:1006600046068E010F5E1F4FCE010596B8010E940F
:1006700046062985223008F47EC03989323010F4CC
:10068000B8017CC08A859A8989278A87243011F02D
:10069000223031F4231709F06EC06CE671E06EC0B1
:1006A000343039F41D861E861F86188A1C861B86E8
:1006B00004C0323021F484E08987B7015FC02B8504
:1006C0003C858B899C89281B390B3C872B87ED84C3
:1006D000FE840F851889AD88BE88CF88D88CEA142F
:1006E000FB040C051D0540F4EE0CFF1C001F111F40
:1006F000215030403C872B8720E030E040E050E044
:1007000080E090E0A0E0B0E460E070E0EA14FB0478
:100710000C051D0540F0282B392B4A2B5B2BEA18C2
:10072000FB080C091D09B695A79597958795EE0CC2
:10073000FF1C001F111F6F5F7F4F6F31710531F775
:10074000DA01C9018F779070A070B0708034910584
:10075000A105B10561F427FD0AC0E114F10401050A
:10076000110529F0205C3F4F4F4F5F4F20782D87B8
:100770003E874F87588BBE01675F7F4FCB010E943A
:1007800071056896EAE00C948725A8E1B0E0EBECEF
:10079000F3E00C946F2569837A838B839C832D838C
:1007A0003E834F83588789E0E82EF12CEC0EFD1E26
:1007B000CE010196B7010E9446068E010F5E1F4FC3
:1007C000CE010596B8010E9446068985823040F028
:1007D0008989823028F0C701B8010E94BE0601C095
:1007E0008FEF6896E6E00C948B25A8E1B0E0EBEF84
:1007F000F3E00C946F2569837A838B839C832D832C
:100800003E834F83588789E0E82EF12CEC0EFD1EC5
:10081000CE010196B7010E9446068E010F5E1F4F62
:10082000CE010596B8010E9446068985823040F0C7
:100830008989823028F0C701B8010E94BE0601C034
:100840008FEF6896E6E00C948B25A8E1B0E0EBE230
:10085000F4E00C946F2569837A838B839C832D83CA
:100860003E834F83588789E0E82EF12CEC0EFD1E65
:10087000CE010196B7010E9446068E010F5E1F4F02
:10088000CE010596B8010E9446068985823040F067
:100890008989823028F0C701B8010E94BE0601C0D4
:1008A00081E06896E6E00C948B25ACE0B0E0EBE5E7
:1008B000F4E00C94732569837A838B839C83CE0147
:1008C0000196BE016B5F7F4F0E9446068D8182308C
:1008D00061F1823050F1843021F48E81882351F10E
:1008E0002EC02F81388537FD20C06E812F31310514
:1008F0001CF06623F9F023C08EE190E0821B930B7D
:1009000029853A854B855C8504C056954795379572
:1009100027958A95D2F76623B1F05095409530958A
:1009200021953F4F4F4F5F4F0EC020E030E040E039
:1009300050E009C02FEF3FEF4FEF5FE704C020E02A
:1009400030E040E050E8B901CA012C96E2E00C9496
:100950008F25A8E0B0E0EFEAF4E00C946B257B0172
:100960008C01611571058105910519F482E0898377
:1009700060C083E089838EE1C82ED12CDC82CB82DB
:10098000ED82FE820F831887C801B7010E942205FD
:10099000FC013197F7FF3BC0222733272E1B3F0B6B
:1009A00057016801022E04C0D694C794B794A79447
:1009B0000A94D2F740E050E060E070E081E090E01F
:1009C000A0E0B0E004C0880F991FAA1FBB1F2A95A2
:1009D000D2F70197A109B1098E219F21A023B1234C
:1009E0000097A105B10521F041E050E060E070E022
:1009F0004A295B296C297D294D835E836F83788723
:100A00008EE190E08E1B9F0B9C838B8312C03097EE
:100A100081F00E2E04C0EE0CFF1C001F111F0A9463
:100A2000D2F7ED82FE820F831887CE1ADF0ADC82AE
:100A3000CB821A82CE0101960E9471052896EAE0C7
:100A40000C948725EF92FF920F931F937B018C01EB
:100A500080E0E81680E0F80681E0080780E01807EB
:100A600088F48FEFE816F1040105110531F028F044
:100A700088E090E0A0E0B0E017C080E090E0A0E067
:100A8000B0E012C080E0E81680E0F80680E00807D9
:100A900081E0180728F088E190E0A0E0B0E004C011
:100AA00080E190E0A0E0B0E020E230E040E050E003
:100AB000281B390B4A0B5B0B04C016950795F7945E
:100AC000E7948A95D2F7F701EC58FE4F8081281BF6
:100AD000310941095109C9011F910F91FF90EF9010
:100AE0000895DF92EF92FF920F931F93FC01E48031
:100AF000F58006811781D1808081823048F480E0C2
:100B000090E0A0E1B0E0E82AF92A0A2B1B2BA5C04F
:100B1000843009F49FC0823021F4EE24FF24870141
:100B200005C0E114F1040105110519F4E0E0F0E05D
:100B300096C0628173819FEF623879070CF05BC0C9
:100B400022E83FEF261B370B2A3131052CF020E03D
:100B500030E040E050E02AC0B801A701022E04C0F6
:100B600076956795579547950A94D2F781E090E07E
:100B7000A0E0B0E004C0880F991FAA1FBB1F2A95F0
:100B8000D2F70197A109B1098E219F21A023B1239A
:100B90000097A105B10521F081E090E0A0E0B0E070
:100BA0009A01AB01282B392B4A2B5B2BDA01C901A7
:100BB0008F779070A070B07080349105A105B10559
:100BC00039F427FF09C0205C3F4F4F4F5F4F04C0EF
:100BD000215C3F4F4F4F5F4FE0E0F0E02030A0E05E
:100BE0003A07A0E04A07A0E45A0710F0E1E0F0E07D
:100BF00079018A0127C06038710564F5FB01E1586D
:100C0000FF4FD801C7018F779070A070B07080340B
:100C10009105A105B10539F4E7FE0DC080E490E02F
:100C2000A0E0B0E004C08FE390E0A0E0B0E0E80E08
:100C3000F91E0A1F1B1F17FF05C016950795F7948D
:100C4000E794319687E016950795F794E7948A958F
:100C5000D1F705C0EE24FF248701EFEFF0E06E2FFF
:100C6000679566276795902F9F77D794DD24D79453
:100C70008E2F8695492F462B582F5D29B701CA0123
:100C80001F910F91FF90EF90DF900895FC01DB0121
:100C9000408151812281622F6F7770E0221F2227CD
:100CA000221F9381892F880F822B282F30E0991FD4
:100CB0009927991F11969C93119721153105A9F534
:100CC000411551056105710511F482E037C082E8D4
:100CD0009FEF13969C938E9312979A01AB0167E056
:100CE000220F331F441F551F6A95D1F783E08C9361
:100CF0000DC0220F331F441F551F12968D919C91DA
:100D00001397019713969C938E931297203080E04F
:100D1000380780E0480780E4580758F314962D936D
:100D20003D934D935C93179708952F3F310579F4C8
:100D3000411551056105710519F484E08C930895FE
:100D400064FF03C081E08C9312C01C9210C02F5727
:100D5000304013963C932E93129783E08C9387E058
:100D6000440F551F661F771F8A95D1F7706414963C
:100D70004D935D936D937C93179708951F93DC01BA
:100D8000FB019C91923008F447C08081823008F4C6
:100D900043C0943051F411961C91843099F58181AF
:100DA000682F70E0611B71093FC0843021F09230E0
:100DB00031F48230B9F18181882389F12DC01196F7
:100DC0001C9111978230F1F081811817D9F4129695
:100DD0002D913C911397828193818217930794F010
:100DE00028173907BCF014968D919D910D90BC91F8
:100DF000A02D2481358146815781281739074A075C
:100E00005B0718F4112341F00AC082179307A40767
:100E1000B50740F4112319F061E070E005C06FEFF1
:100E20007FEF02C060E070E0CB011F910895DF9377
:100E3000CF93CDB7DEB7EAE3F0E08FEF8083E7E34F
:100E4000F0E087E98083E4E3F0E01082E1E3F0E0A2
:100E50008AE08083EBE3F0E01082E8E3F0E01082C8
:100E6000E5E3F0E08CE38083E2E3F0E084E080837C
:100E7000CF91DF910895DF93CF93CDB7DEB7AFE584
:100E8000B0E0EFE5F0E0808180688C93CF91DF9156
:100E90000895DF93CF93CDB7DEB7AFE5B0E0EFE5D0
:100EA000F0E080818F778C93CF91DF910895DF936D
:100EB000CF93CDB7DEB7A5E5B0E0E5E5F0E0808102
:100EC00082608C93A5E5B0E0E5E5F0E080818E7F5F
:100ED0008C93CF91DF910895DF93CF93CDB7DEB799
:100EE000ABE5B0E0EBE5F0E0808180648C93CF91DE
:100EF000DF910895DF93CF93CDB7DEB7ABE5B0E0D8
:100F0000EBE5F0E080818F7B8C93CF91DF910895AA
:100F1000DF93CF9300D00F92CDB7DEB7898389815D
:100F2000282F30E03B832A838A819B818230910580
:100F300099F12A813B812330310534F48A819B81E8
:100F400081309105C1F145C02A813B8123303105B3
:100F5000A1F08A819B8184309105D9F5A5E5B0E0A7
:100F6000E5E5F0E0808182608C93A5E5B0E0E5E501
:100F7000F0E080818E7F8C932CC0A5E5B0E0E5E5A4
:100F8000F0E0808182608C93A5E5B0E0E5E5F0E0DB
:100F9000808181608C931DC0A5E5B0E0E5E5F0E0BF
:100FA00080818D7F8C93A5E5B0E0E5E5F0E0808160
:100FB0008E7F8C930EC0A5E5B0E0E5E5F0E0808182
:100FC00081608C93A5E5B0E0E5E5F0E080818D7F60
:100FD0008C930F900F900F90CF91DF910895DF9336
:100FE000CF93CDB7DEB7A5E5B0E0E5E5F0E08081D1
:100FF0008B7F8C93A5E5B0E0E5E5F0E0808188602B
:101000008C93CF91DF910895DF93CF93CDB7DEB767
:10101000ABE5B0E0EBE5F0E0808180688C93CF91A8
:10102000DF910895DF93CF93CDB7DEB7ABE5B0E0A6
:10103000EBE5F0E080818F778C93CF91DF9108957D
:10104000DF93CF9300D00F92CDB7DEB7898389812C
:10105000282F30E03B832A838A819B81823091054F
:1010600099F12A813B812330310534F48A819B81B7
:1010700081309105C1F145C02A813B812330310582
:10108000A1F08A819B8184309105D9F5A5E5B0E076
:10109000E5E5F0E080818B7F8C93A5E5B0E0E5E5A8
:1010A000F0E0808188608C932CC0A5E5B0E0E5E598
:1010B000F0E0808184608C93A5E5B0E0E5E5F0E0A8
:1010C000808188608C931DC0A5E5B0E0E5E5F0E087
:1010D00080818B7F8C93A5E5B0E0E5E5F0E0808131
:1010E000877F8C930EC0A5E5B0E0E5E5F0E0808158
:1010F000877F8C93A5E5B0E0E5E5F0E08081846032
:101100008C930F900F900F90CF91DF910895DF9304
:10111000CF9300D0CDB7DEB79A83898389819A8136
:10112000009731F089819A81909399028093980277
:101130000F900F90CF91DF910895DF93CF9300D060
:10114000CDB7DEB79A83898389819A81009731F080
:1011500089819A8190939B0280939A020F900F90BD
:10116000CF91DF910895DF93CF9300D0CDB7DEB755
:101170009A83898389819A81009731F089819A8144
:1011800090939D0280939C020F900F90CF91DF91DE
:1011900008951F920F920FB60F9211242F933F9331
:1011A0004F935F936F937F938F939F93AF93BF936F
:1011B000EF93FF93DF93CF93CDB7DEB78091980283
:1011C00090919902009729F0E0919802F09199028C
:1011D0000995CF91DF91FF91EF91BF91AF919F91D1
:1011E0008F917F916F915F914F913F912F910F90D0
:1011F0000FBE0F901F9018951F920F920FB60F926F
:1012000011242F933F934F935F936F937F938F930B
:101210009F93AF93BF93EF93FF93DF93CF93CDB79C
:10122000DEB780919A0290919B02009729F0E0919D
:101230009A02F0919B020995CF91DF91FF91EF9176
:10124000BF91AF919F918F917F916F915F914F91DE
:101250003F912F910F900FBE0F901F9018951F92E6
:101260000F920FB60F9211242F933F934F935F93DA
:101270006F937F938F939F93AF93BF93EF93FF935E
:10128000DF93CF93CDB7DEB780919C0290919D0202
:10129000009729F0E0919C02F0919D020995CF9171
:1012A000DF91FF91EF91BF91AF919F918F917F91CE
:1012B0006F915F914F913F912F910F900FBE0F90C3
:1012C0001F901895DF93CF9300D000D000D0CDB7FA
:1012D000DEB78A836B834C8319828A81282F30E0A2
:1012E0003E832D838D819E818130910509F449C013
:1012F0002D813E81223031052CF48D819E81009715
:1013000071F0D4C02D813E812230310509F46BC0CB
:101310008D819E818330910509F497C0C7C08C816F
:101320008130A1F4ABE3B0E0EBE3F0E08081482F43
:101330008B81282F30E081E090E0022E02C0880FE0
:10134000991F0A94E2F7842B8C93B0C08C81882378
:10135000A9F4ABE3B0E0EBE3F0E08081482F8B81B0
:10136000282F30E081E090E0022E02C0880F991F04
:101370000A94E2F7809584238C9398C081E0898356
:1013800095C08C818130A1F4A8E3B0E0E8E3F0E0FF
:101390008081482F8B81282F30E081E090E0022E61
:1013A00002C0880F991F0A94E2F7842B8C937EC0A9
:1013B0008C818823A9F4A8E3B0E0E8E3F0E0808121
:1013C000482F8B81282F30E081E090E0022E02C070
:1013D000880F991F0A94E2F7809584238C9366C046
:1013E00081E0898363C08C818130A1F4A5E3B0E002
:1013F000E5E3F0E08081482F8B81282F30E081E009
:1014000090E0022E02C0880F991F0A94E2F7842B05
:101410008C934CC08C818823A9F4A5E3B0E0E5E36C
:10142000F0E08081482F8B81282F30E081E090E030
:10143000022E02C0880F991F0A94E2F78095842338
:101440008C9334C081E0898331C08C818130A1F4D8
:10145000A2E3B0E0E2E3F0E08081482F8B81282F07
:1014600030E081E090E0022E02C0880F991F0A94BC
:10147000E2F7842B8C931AC08C818823A9F4A2E311
:10148000B0E0E2E3F0E08081482F8B81282F30E04C
:1014900081E090E0022E02C0880F991F0A94E2F7C3
:1014A000809584238C9302C081E08983898126966C
:1014B0000FB6F894DEBF0FBECDBFCF91DF91089578
:1014C000DF93CF9300D000D00F92CDB7DEB78A83E1
:1014D0006B8319828A81843098F58A81282F30E0C5
:1014E0003D832C838C819D8181309105D1F02C81AD
:1014F0003D81223031052CF48C819D81009761F073
:1015000021C02C813D812230310581F08C819D816B
:101510008330910581F016C0EBE3F0E08B8180838E
:1015200011C0E8E3F0E08B8180830CC0E5E3F0E0DC
:101530008B81808307C0E2E3F0E08B81808302C06F
:1015400081E0898389810F900F900F900F900F9009
:10155000CF91DF910895DF93CF93CDB7DEB7279773
:101560000FB6F894DEBF0FBECDBF89836A835C835C
:101570004B838981282F30E03F832E834E815F810A
:101580004130510559F18E819F818230910534F4AB
:101590002E813F812115310569F05CC04E815F814C
:1015A0004230510579F18E819F818330910509F494
:1015B0003DC050C0E9E3F0E08081282F30E08A810F
:1015C000882F90E0A90102C0559547958A95E2F7CA
:1015D000CA018170EB81FC8180833FC0E6E3F0E0CB
:1015E0008081282F30E08A81882F90E0A90102C0F5
:1015F000559547958A95E2F7CA018170EB81FC8188
:1016000080832BC0E3E3F0E08081282F30E08A81E3
:10161000882F90E0A90102C0559547958A95E2F779
:10162000CA018170EB81FC81808317C0E0E3F0E0A8
:101630008081282F30E08A81882F90E0A90102C0A4
:10164000559547958A95E2F7CA018170EB81FC8137
:10165000808303C052E05D8302C081E08D838D8171
:1016600027960FB6F894DEBF0FBECDBFCF91DF91A6
:101670000895DF93CF930F92CDB7DEB78983EBE365
:10168000F0E0898180830F90CF91DF910895DF93FF
:10169000CF93CDB7DEB7A7E2B0E0E7E2F0E080811C
:1016A00080648C93A7E2B0E0E7E2F0E080818F777E
:1016B0008C9380E090E0A0EAB0E480937402909371
:1016C0007502A0937602B0937702A6E2B0E0E6E25C
:1016D000F0E0808181608C93A6E2B0E0E6E2F0E089
:1016E000808182608C93A6E2B0E0E6E2F0E0808147
:1016F00084608C93A7E2B0E0E7E2F0E080818F7D28
:101700008C93A6E2B0E0E6E2F0E0808180628C9308
:10171000A0E5B0E0E0E5F0E080818F7D8C93A0E56E
:10172000B0E0E0E5F0E080818F7B8C93A0E5B0E055
:10173000E0E5F0E080818F778C93CF91DF91089581
:10174000DF93CF93CDB7DEB7A6E2B0E0E6E2F0E0FC
:10175000808180688C93CF91DF910895DF93CF9340
:10176000CDB7DEB7A6E2B0E0E6E2F0E080818860C7
:101770008C93CF91DF910895DF93CF93CDB7DEB7F0
:10178000A6E2B0E0E6E2F0E080818F778C93CF9123
:10179000DF910895DF93CF9300D0CDB7DEB71A82E3
:1017A0001982E4E2F0E080819181CC01A0E0B0E018
:1017B000BC01CD010E94A904DC01CB01209174027F
:1017C000309175024091760250917702BC01CD01B3
:1017D0000E941F02DC01CB01BC01CD0120E030E002
:1017E00040E854E40E941903DC01CB01BC01CD01A7
:1017F0000E944900DC01CB019A83898389819A8107
:101800000F900F90CF91DF910895DF93CF930F92B8
:10181000CDB7DEB78983A7E2B0E0E7E2F0E08081F0
:10182000807E8C93A7E2B0E0E7E2F0E090818981CE
:10183000892B8C93A6E2B0E0E6E2F0E08081806440
:101840008C93E6E2F0E0808182958F70882F90E0A3
:10185000817090700097A9F3A6E2B0E0E6E2F0E0B4
:10186000808180618C930F90CF91DF910895DF93F9
:10187000CF930F92CDB7DEB78983A7E2B0E0E7E25E
:10188000F0E08081807E8C93A7E2B0E0E7E2F0E0B8
:1018900090818981892B8C93A6E2B0E0E6E2F0E0AA
:1018A000808180648C930F90CF91DF910895DF93B6
:1018B000CF9300D0CDB7DEB71A821982E4E2F0E010
:1018C00080819181CC01A0E0B0E028EE33E040E0DF
:1018D00050E0BC01CD010E940725DC01CB01BC0119
:1018E000CD010E94A904DC01CB012091740230914A
:1018F00075024091760250917702BC01CD010E94A1
:101900001F02DC01CB01BC01CD0120E030E040E84A
:1019100054E40E941903DC01CB01BC01CD010E94FB
:101920004900DC01CB019A83898389819A810F90D8
:101930000F90CF91DF910895DF93CF93CDB7DEB7AE
:10194000A6E2B0E0E6E2F0E08081877F8C93CF9161
:10195000DF910895DF93CF9300D0CDB7DEB79A83A0
:10196000898389819A81009731F089819A81909346
:10197000A3028093A2020F900F90CF91DF91089560
:101980001F920F920FB60F9211242F933F934F93F4
:101990005F936F937F938F939F93AF93BF93EF93D7
:1019A000FF93DF93CF93CDB7DEB78091A2029091E2
:1019B000A302009729F0E091A202F091A3020995F9
:1019C000CF91DF91FF91EF91BF91AF919F918F9157
:1019D0007F916F915F914F913F912F910F900FBE2B
:1019E0000F901F9018950F931F93DF93CF93CDB750
:1019F000DEB7CC58D0400FB6F894DEBF0FBECDBFD7
:101A0000FE01E757FF4F80E090E0ACE0B2E4808356
:101A10009183A283B3838E010B571F4FFE01E757BB
:101A2000FF4F608171818281938120E030E04AE73D
:101A300055E40E941F02DC01CB01F80180839183F1
:101A4000A283B383FE01EB57FF4F608171818281D6
:101A5000938120E030E040E85FE30E942504882382
:101A600044F4FE01ED57FF4F81E090E091838083C5
:101A700064C0FE01EB57FF4F6081718182819381C9
:101A800020E03FEF4FE757E40E94C50318160CF023
:101A900043C0FE01E757FF4F6081718182819381CE
:101AA00020E030E040E251E40E941F02DC01CB0163
:101AB0008E010D571F4FBC01CD010E944900DC0172
:101AC000CB01F801918380831FC0FE01EF57FF4FC8
:101AD00080E991E091838083FE01EF57FF4F808181
:101AE00091810197F1F7FE01EF57FF4F91838083BA
:101AF000DE01AD57BF4FFE01ED57FF4F8081918151
:101B0000019711969C938E93FE01ED57FF4F8081B4
:101B100091810097D1F627C08E010D571F4FFE010E
:101B2000EB57FF4F60817181828193810E94490050
:101B3000DC01CB01F80191838083DE01A158BF4F06
:101B4000FE01ED57FF4F808191818D939C93FE01A3
:101B5000E158FF4F808191810197F1F7FE01E15833
:101B6000FF4F9183808380E30E94E313FE01E558D9
:101B7000FF4F80E090E0A0EAB0E480839183A283ED
:101B8000B3838E0109581F4FFE01E558FF4F608156
:101B900071818281938120E030E04AE755E40E9420
:101BA0001F02DC01CB01F80180839183A283B38300
:101BB000FE01E958FF4F608171818281938120E0AD
:101BC00030E040E85FE30E942504882344F4FE01EE
:101BD000EB58FF4F81E090E09183808364C0FE0169
:101BE000E958FF4F608171818281938120E03FEF4E
:101BF0004FE757E40E94C50318160CF043C0FE01DE
:101C0000E558FF4F608171818281938120E030E04F
:101C100040E251E40E941F02DC01CB018E010B580F
:101C20001F4FBC01CD010E944900DC01CB01F8012E
:101C3000918380831FC0FE01ED58FF4F80E991E042
:101C400091838083FE01ED58FF4F80819181019740
:101C5000F1F7FE01ED58FF4F91838083DE01AB5811
:101C6000BF4FFE01EB58FF4F808191810197119684
:101C70009C938E93FE01EB58FF4F808191810097DA
:101C8000D1F627C08E010B581F4FFE01E958FF4FB8
:101C900060817181828193810E944900DC01CB01C6
:101CA000F80191838083DE01AF58BF4FFE01EB58EE
:101CB000FF4F808191818D939C93FE01EF58FF4FE0
:101CC000808191810197F1F7FE01EF58FF4F9183D9
:101CD000808380E30E94E313FE01E359FF4F80E01D
:101CE00090E0A0E8BFE380839183A283B3838E0159
:101CF00007591F4FFE01E359FF4F608171818281B7
:101D0000938120E030E04AE755E40E941F02DC01A5
:101D1000CB01F80180839183A283B383FE01E7594D
:101D2000FF4F608171818281938120E030E040E843
:101D30005FE30E942504882344F4FE01E959FF4F24
:101D400081E090E09183808364C0FE01E759FF4FFA
:101D5000608171818281938120E03FEF4FE757E4FA
:101D60000E94C50318160CF043C0FE01E359FF4F53
:101D7000608171818281938120E030E040E251E412
:101D80000E941F02DC01CB018E0109591F4FBC01CB
:101D9000CD010E944900DC01CB01F80191838083D1
:101DA0001FC0FE01EB59FF4F80E991E091838083D2
:101DB000FE01EB59FF4F808191810197F1F7FE0100
:101DC000EB59FF4F91838083DE01A959BF4FFE017C
:101DD000E959FF4F80819181019711969C938E93D1
:101DE000FE01E959FF4F808191810097D1F627C00C
:101DF0008E0109591F4FFE01E759FF4F6081718124
:101E0000828193810E944900DC01CB01F80191831A
:101E10008083DE01AD59BF4FFE01E959FF4F80813C
:101E200091818D939C93FE01ED59FF4F80819181AB
:101E30000197F1F7FE01ED59FF4F9183808380E315
:101E40000E94E313FE01E15AFF4F80E090E0A0E81A
:101E5000BFE380839183A283B3838E01055A1F4F12
:101E6000FE01E15AFF4F608171818281938120E000
:101E700030E04AE755E40E941F02DC01CB01F80183
:101E800080839183A283B383FE01E55AFF4F608173
:101E900071818281938120E030E040E85FE30E941D
:101EA0002504882344F4FE01E75AFF4F81E090E0C7
:101EB0009183808364C0FE01E55AFF4F6081718188
:101EC0008281938120E03FEF4FE757E40E94C503F2
:101ED00018160CF043C0FE01E15AFF4F608171817A
:101EE0008281938120E030E040E251E40E941F02B1
:101EF000DC01CB018E01075A1F4FBC01CD010E94AE
:101F00004900DC01CB01F801918380831FC0FE01F1
:101F1000E95AFF4F80E991E091838083FE01E95AFD
:101F2000FF4F808191810197F1F7FE01E95AFF4F40
:101F300091838083DE01A75ABF4FFE01E75AFF4F0E
:101F400080819181019711969C938E93FE01E75AAF
:101F5000FF4F808191810097D1F627C08E01075AEB
:101F60001F4FFE01E55AFF4F60817181828193818D
:101F70000E944900DC01CB01F80191838083DE01DE
:101F8000AB5ABF4FFE01E75AFF4F808191818D937D
:101F90009C93FE01EB5AFF4F808191810197F1F7ED
:101FA000FE01EB5AFF4F9183808380E20E94E3138E
:101FB000FE01EF5AFF4F80E090E0A0E8BFE380838E
:101FC0009183A283B3838E01035B1F4FFE01EF5AFF
:101FD000FF4F608171818281938120E030E04AE788
:101FE00055E40E941F02DC01CB01F801808391833C
:101FF000A283B383FE01E35BFF4F60817181828125
:10200000938120E030E040E85FE30E9425048823CC
:1020100044F4FE01E55BFF4F81E090E09183808313
:1020200064C0FE01E35BFF4F608171818281938117
:1020300020E03FEF4FE757E40E94C50318160CF06D
:1020400043C0FE01EF5AFF4F60817181828193810D
:1020500020E030E040E251E40E941F02DC01CB01AD
:102060008E01055B1F4FBC01CD010E944900DC01C0
:10207000CB01F801918380831FC0FE01E75BFF4F16
:1020800080E991E091838083FE01E75BFF4F8081CF
:1020900091810197F1F7FE01E75BFF4F9183808308
:1020A000DE01A55BBF4FFE01E55BFF4F80819181A3
:1020B000019711969C938E93FE01E55BFF4F808103
:1020C00091810097D1F627C08E01055B1F4FFE015D
:1020D000E35BFF4F60817181828193810E9449009F
:1020E000DC01CB01F80191838083DE01A95BBF4F46
:1020F000FE01E55BFF4F808191818D939C93FE01F2
:10210000E95BFF4F808191810197F1F7FE01E95B67
:10211000FF4F9183808388E20E94F312FE01ED5B02
:10212000FF4F80E090E0A0E8BFE380839183A2832B
:10213000B3838E01015C1F4FFE01ED5BFF4F608199
:1021400071818281938120E030E04AE755E40E946A
:102150001F02DC01CB01F80180839183A283B3834A
:10216000FE01FF96608171818281938120E030E0E1
:1021700040E85FE30E94250488232CF481E090E08E
:102180009EAF8DAF46C0FE01FF9660817181828156
:10219000938120E03FEF4FE757E40E94C5031816F4
:1021A00064F5FE01ED5BFF4F608171818281938157
:1021B00020E030E040E251E40E941F02DC01CB014C
:1021C000BC01CD010E944900DC01CB019EAF8DAF67
:1021D0000FC080E991E09CAF8BAF8BAD9CAD0197B8
:1021E000F1F79CAF8BAF8DAD9EAD01979EAF8DAFDC
:1021F0008DAD9EAD009769F716C0FE01FF96608118
:102200007181828193810E944900DC01CB019EAFE4
:102210008DAF8DAD9EAD9AAF89AF89AD9AAD019767
:10222000F1F79AAF89AF88E00E94F31280E090E066
:10223000A0E8BFE38DAB9EABAFABB8AF6DA97EA9F5
:102240008FA998AD20E030E04AE755E40E941F02D4
:10225000DC01CB0189AB9AABABABBCAB69A97AA96A
:102260008BA99CA920E030E040E85FE30E942504B0
:1022700088232CF481E090E098AB8FA73FC069A938
:102280007AA98BA99CA920E03FEF4FE757E40E9471
:10229000C50318164CF56DA97EA98FA998AD20E04D
:1022A00030E040E251E40E941F02DC01CB01BC019E
:1022B000CD010E944900DC01CB0198AB8FA70FC074
:1022C00080E991E09EA78DA78DA59EA50197F1F7C6
:1022D0009EA78DA78FA598A9019798AB8FA78FA5CB
:1022E00098A9009769F714C069A97AA98BA99CA934
:1022F0000E944900DC01CB0198AB8FA78FA598A95C
:102300009CA78BA78BA59CA50197F1F79CA78BA7F2
:1023100081E00E94F31280E090E0A0EAB0E48FA395
:1023200098A7A9A7BAA76FA178A589A59AA520E023
:1023300030E04AE755E40E941F02DC01CB018BA389
:102340009CA3ADA3BEA36BA17CA18DA19EA120E007
:1023500030E040E85FE30E94250488232CF481E00C
:1023600090E09AA389A33FC06BA17CA18DA19EA1FF
:1023700020E03FEF4FE757E40E94C50318164CF5E5
:102380006FA178A589A59AA520E030E040E251E44C
:102390000E941F02DC01CB01BC01CD010E9449005B
:1023A000DC01CB019AA389A30FC080E991E098A337
:1023B0008F8F8F8D98A10197F1F798A38F8F89A1A7
:1023C0009AA101979AA389A389A19AA1009769F775
:1023D00014C06BA17CA18DA19EA10E944900DC01CB
:1023E000CB019AA389A389A19AA19E8F8D8F8D8DF0
:1023F0009E8D0197F1F79E8F8D8F8CE00E94F312D6
:1024000080E090E0A0E8BFE3898F9A8FAB8FBC8F0C
:10241000698D7A8D8B8D9C8D20E030E04AE755E404
:102420000E941F02DC01CB018D8B9E8BAF8BB88F7E
:102430006D897E898F89988D20E030E040E85FE3E8
:102440000E94250488232CF481E090E09C8B8B8BE8
:102450003FC06D897E898F89988D20E03FEF4FE7DF
:1024600057E40E94C50318164CF5698D7A8D8B8D43
:102470009C8D20E030E040E251E40E941F02DC012C
:10248000CB01BC01CD010E944900DC01CB019C8B3A
:102490008B8B0FC080E991E09A8B898B89899A890F
:1024A0000197F1F79A8B898B8B899C8901979C8B7B
:1024B0008B8B8B899C89009769F714C06D897E8905
:1024C0008F89988D0E944900DC01CB019C8B8B8BFE
:1024D0008B899C89988B8F878F8598890197F1F7D5
:1024E000988B8F8786E00E94F31280E090E0A0E84E
:1024F000BFE38B879C87AD87BE876B857C858D8589
:102500009E8520E030E04AE755E40E941F02DC018E
:10251000CB018F839887A987BA876F817885898552
:102520009A8520E030E040E85FE30E94250488239C
:102530002CF481E090E09E838D833FC06F8178858D
:1025400089859A8520E03FEF4FE757E40E94C50355
:1025500018164CF56B857C858D859E8520E030E0D6
:1025600040E251E40E941F02DC01CB01BC01CD011D
:102570000E944900DC01CB019E838D830FC080E95E
:1025800091E09C838B838B819C810197F1F79C83E5
:102590008B838D819E8101979E838D838D819E810A
:1025A000009769F714C06F81788589859A850E94A4
:1025B0004900DC01CB019E838D838D819E819A83AE
:1025C000898389819A810197F1F79A838983C45716
:1025D000DF4F0FB6F894DEBF0FBECDBFCF91DF91B6
:1025E0001F910F910895DF93CF93CDB7DEB72F974B
:1025F0000FB6F894DEBF0FBECDBF8F8780E063E0DB
:1026000040E00E94620980E062E041E00E946209CD
:102610008F8582958F70982F917081E060E0492FAF
:102620000E9462098F85829586958770982F917098
:1026300081E061E0492F0E9462098F85829586952D
:1026400086958370982F917081E062E0492F0E94F7
:1026500062098F85982F991F9927991F81E064E05F
:10266000492F0E94620980E062E040E00E94620916
:1026700080E062E041E00E9462098F85982F9170AE
:1026800081E060E0492F0E9462098F858695982F2E
:10269000917081E061E0492F0E9462098F858695E3
:1026A0008695982F917081E062E0492F0E9462091F
:1026B0008F85869586958695982F917081E064E048
:1026C000492F0E94620980E062E040E00E946209B6
:1026D00080E090E0A0EAB0E48B879C87AD87BE875E
:1026E0006B857C858D859E8520E030E04AE755E44A
:1026F0000E941F02DC01CB018F839887A987BA87CC
:102700006F81788589859A8520E030E040E85FE335
:102710000E94250488232CF481E090E09E838D8321
:102720003FC06F81788589859A8520E03FEF4FE72C
:1027300057E40E94C50318164CF56B857C858D8582
:102740009E8520E030E040E251E40E941F02DC015F
:10275000CB01BC01CD010E944900DC01CB019E836D
:102760008D830FC080E991E09C838B838B819C815A
:102770000197F1F79C838B838D819E8101979E83C6
:102780008D838D819E81009769F714C06F81788554
:1027900089859A850E944900DC01CB019E838D8347
:1027A0008D819E819A83898389819A810197F1F72E
:1027B0009A8389832F960FB6F894DEBF0FBECDBFE4
:1027C000CF91DF910895DF93CF93CDB7DEB72F97E9
:1027D0000FB6F894DEBF0FBECDBF8F8780E063E0F9
:1027E00040E00E94620980E062E041E00E946209EC
:1027F0008F8582958F70982F917081E060E0492FCE
:102800000E9462098F85829586958770982F9170B6
:1028100081E061E0492F0E9462098F85829586954B
:1028200086958370982F917081E062E0492F0E9415
:1028300062098F85982F991F9927991F81E064E07D
:10284000492F0E94620980E062E040E00E94620934
:1028500080E090E0A0EAB0E48B879C87AD87BE87DC
:102860006B857C858D859E8520E030E04AE755E4C8
:102870000E941F02DC01CB018F839887A987BA874A
:102880006F81788589859A8520E030E040E85FE3B4
:102890000E94250488232CF481E090E09E838D83A0
:1028A0003FC06F81788589859A8520E03FEF4FE7AB
:1028B00057E40E94C50318164CF56B857C858D8501
:1028C0009E8520E030E040E251E40E941F02DC01DE
:1028D000CB01BC01CD010E944900DC01CB019E83EC
:1028E0008D830FC080E991E09C838B838B819C81D9
:1028F0000197F1F79C838B838D819E8101979E8345
:102900008D838D819E81009769F714C06F817885D2
:1029100089859A850E944900DC01CB019E838D83C5
:102920008D819E819A83898389819A810197F1F7AC
:102930009A8389832F960FB6F894DEBF0FBECDBF62
:10294000CF91DF910895DF93CF93CDB7DEB72F9767
:102950000FB6F894DEBF0FBECDBF8F8780E063E077
:1029600041E00E94620980E062E041E00E94620969
:102970008F8582958F70982F917081E060E0492F4C
:102980000E9462098F85829586958770982F917035
:1029900081E061E0492F0E9462098F8582958695CA
:1029A00086958370982F917081E062E0492F0E9494
:1029B00062098F85982F991F9927991F81E064E0FC
:1029C000492F0E94620980E062E040E00E946209B3
:1029D00080E062E041E00E9462098F85982F91704B
:1029E00081E060E0492F0E9462098F858695982FCB
:1029F000917081E061E0492F0E9462098F85869580
:102A00008695982F917081E062E0492F0E946209BB
:102A10008F85869586958695982F917081E064E0E4
:102A2000492F0E94620980E062E040E00E94620952
:102A300080E090E0A0EAB0E48B879C87AD87BE87FA
:102A40006B857C858D859E8520E030E04AE755E4E6
:102A50000E941F02DC01CB018F839887A987BA8768
:102A60006F81788589859A8520E030E040E85FE3D2
:102A70000E94250488232CF481E090E09E838D83BE
:102A80003FC06F81788589859A8520E03FEF4FE7C9
:102A900057E40E94C50318164CF56B857C858D851F
:102AA0009E8520E030E040E251E40E941F02DC01FC
:102AB000CB01BC01CD010E944900DC01CB019E830A
:102AC0008D830FC080E991E09C838B838B819C81F7
:102AD0000197F1F79C838B838D819E8101979E8363
:102AE0008D838D819E81009769F714C06F817885F1
:102AF00089859A850E944900DC01CB019E838D83E4
:102B00008D819E819A83898389819A810197F1F7CA
:102B10009A8389832F960FB6F894DEBF0FBECDBF80
:102B2000CF91DF910895DF93CF9300D00F92CDB76F
:102B3000DEB79B838A8319820EC08981282F30E0FB
:102B40008A819B81FC01E20FF31F80810E94A31404
:102B500089818F5F89838981282F30E08A819B81D9
:102B6000FC01E20FF31F8081882339F70F900F904B
:102B70000F90CF91DF9108950F931F93DF93CF9321
:102B8000CDB7DEB72E970FB6F894DEBF0FBECDBF20
:102B900069877A878B879C875E874D871D821E8217
:102BA0001F82188683E190E0A0E0B0E089839A83D9
:102BB000AB83BC8329813A818D859E85FC01E20F20
:102BC000F31F108289819A81AB81BC810197A10991
:102BD000B10989839A83AB83BC8389859A85AB8548
:102BE000BC85BB230CF04DC081E090E0A0E0B0E0DC
:102BF0008D839E83AF83B88789859A85AB85BC8595
:102C0000B095A095909581959F4FAF4FBF4F898705
:102C10009A87AB87BC8735C029813A818D859E858F
:102C20008C01020F131F89859A85AB85BC852AE02C
:102C300030E040E050E0BC01CD010E942625DC01DF
:102C4000CB01805DF801808389819A81AB81BC8151
:102C50000197A109B10989839A83AB83BC838985D4
:102C60009A85AB85BC852AE030E040E050E0BC01AD
:102C7000CD010E942625DA01C90189879A87AB8791
:102C8000BC8789859A85AB85BC850097A105B10570
:102C900019F68D819E81AF81B8850097A105B10598
:102CA000A1F029813A818D859E85FC01E20FF31FF9
:102CB0008DE2808389819A81AB81BC810197A109D2
:102CC000B10989839A83AB83BC8389819A81AB8163
:102CD000BC810196A11DB11D89839A83AB83BC83FE
:102CE00029813A818D859E85820F931F2E960FB67E
:102CF000F894DEBF0FBECDBFCF91DF911F910F9132
:102D00000895DF93CF93CDB7DEB76A970FB6F894E7
:102D1000DEBF0FBECDBF6F8B788F898F9A8F8F8963
:102D2000988DA98DBA8D0097A105B10599F08F896D
:102D3000988DA98DBA8D9E012D5F3F4FBC01CD01AD
:102D4000A9010E94BC159A83898389819A810E9476
:102D5000931503C080E30E94A3146A960FB6F894FB
:102D6000DEBF0FBECDBFCF91DF910895DF93CF932C
:102D7000CDB7DEB7A6970FB6F894DEBF0FBECDBFB6
:102D80006BA37CA38DA39EA36BA17CA18DA19EA10F
:102D900020E030E048EC52E40E941F02DC01CB014D
:102DA000BC01CD010E945504DC01CB018B879C87BF
:102DB000AD87BE878B859C85AD85BE859E01215FD5
:102DC0003F4FBC01CD01A9010E94BC159A8789879C
:102DD0001D821E821F82188619821A821B821C8203
:102DE0000BC08D819E81AF81B8850196A11DB11D5B
:102DF0008D839E83AF83B8872D813E8189859A8597
:102E0000FC01E20FF31F8081882359F78D819E8199
:102E1000AF81B8850297A109B1098D839E83AF83E5
:102E2000B8878D819E81AF81B8850097A105B105D6
:102E300049F580E30E94A31425C029813A814B8182
:102E40005C818D819E81AF81B885281739074A073B
:102E50005B0719F48EE20E94A31429813A818985C7
:102E60009A85FC01E20FF31F80810E94A3148981DF
:102E70009A81AB81BC810196A11DB11D89839A8382
:102E8000AB83BC8329813A8189859A85FC01E20F55
:102E9000F31F8081882389F6A6960FB6F894DEBFCB
:102EA0000FBECDBFCF91DF910895DF93CF9300D0B8
:102EB0000F92CDB7DEB78A836B8380E889838A81DE
:102EC000882321F48B818058898314C08A818130C2
:102ED00021F48B81805489830DC08A81823021F452
:102EE0008B818C56898306C08A81833019F48B814B
:102EF0008C52898389818068898389810E94F31239
:102F00000F900F900F90CF91DF910895DF93CF93A3
:102F100000D0CDB7DEB789836A8389816A810E9438
:102F2000551780E20E94A3140F900F90CF91DF916C
:102F30000895DF93CF9300D00F92CDB7DEB78A8389
:102F40006B8319820AC08A8169810E94551780E2C9
:102F50000E94A31489818F5F898399818B8189174E
:102F600090F70F900F900F90CF91DF910895DF931E
:102F7000CF93CDB7DEB727970FB6F894DEBF0FBE5D
:102F8000CDBF9C838B836D834E832F838E816F8116
:102F90000E9455178D810E94A3141A8219828D8177
:102FA000883030F58D81882F90E0880F991F880F29
:102FB000991F880F991F8A838A8180648A838A81F6
:102FC0008F778A838A810E94F31219820EC08981C9
:102FD000282F30E08B819C81FC01E20FF31F808160
:102FE0000E94A31489818F5F89838981883078F357
:102FF00082E00E94F31227960FB6F894DEBF0FBE50
:10300000CDBFCF91DF910895DF93CF93CDB7DEB7DA
:103010006D970FB6F894DEBF0FBECDBF8AE08D8FDF
:1030200081E060E00E94551780E690E00E949315D1
:1030300080E090E0AAE7B4E4898F9A8FAB8FBC8FD1
:10304000698D7A8D8B8D9C8D20E030E04AE755E4C8
:103050000E941F02DC01CB018D8B9E8BAF8BB88F42
:103060006D897E898F89988D20E030E040E85FE3AC
:103070000E94250488232CF481E090E09C8B8B8BAC
:103080003FC06D897E898F89988D20E03FEF4FE7A3
:1030900057E40E94C50318164CF5698D7A8D8B8D07
:1030A0009C8D20E030E040E251E40E941F02DC01F0
:1030B000CB01BC01CD010E944900DC01CB019C8BFE
:1030C0008B8B0FC080E991E09A8B898B89899A89D3
:1030D0000197F1F79A8B898B8B899C8901979C8B3F
:1030E0008B8B8B899C89009769F714C06D897E89C9
:1030F0008F89988D0E944900DC01CB019C8B8B8BC2
:103100008B899C89988B8F878F8598890197F1F798
:10311000988B8F8788E792E060E040E02D8D0E94D9
:10312000B7178D8D282F215088E792E060E040E0AE
:103130000E94B71780E090E0AFEAB3E48B879C87EA
:10314000AD87BE876B857C858D859E8520E030E0D0
:103150004AE755E40E941F02DC01CB018F83988768
:10316000A987BA876F81788589859A8520E030E0C4
:1031700040E85FE30E94250488232CF481E090E07E
:103180009E838D833FC06F81788589859A8520E0F5
:103190003FEF4FE757E40E94C50318164CF56B85C7
:1031A0007C858D859E8520E030E040E251E40E94E0
:1031B0001F02DC01CB01BC01CD010E944900DC01F2
:1031C000CB019E838D830FC080E991E09C838B832C
:1031D0008B819C810197F1F79C838B838D819E81EC
:1031E00001979E838D838D819E81009769F714C01E
:1031F0006F81788589859A850E944900DC01CB0121
:103200009E838D838D819E819A83898389819A8112
:103210000197F1F79A83898380E06D8D0E9486176C
:103220008D8D982F915080E0692F0E9486178D8D8B
:103230008F5F8D8F8D8D813141F482E060E00E943F
:1032400055178AE690E00E9493158D8D833108F41E
:1032500061CF6D960FB6F894DEBF0FBECDBFCF9194
:10326000DF910895DF93CF93CDB7DEB72F970FB6D9
:10327000F894DEBF0FBECDBF1F8680E060E00E94E5
:10328000551788E792E060E040E02F850E94B7176D
:1032900093E18F85292F281B88E792E060E040E0CA
:1032A0000E94B71780E090E0AFEAB3E48B879C8779
:1032B000AD87BE876B857C858D859E8520E030E05F
:1032C0004AE755E40E941F02DC01CB018F839887F7
:1032D000A987BA876F81788589859A8520E030E053
:1032E00040E85FE30E94250488232CF481E090E00D
:1032F0009E838D833FC06F81788589859A8520E084
:103300003FEF4FE757E40E94C50318164CF56B8555
:103310007C858D859E8520E030E040E251E40E946E
:103320001F02DC01CB01BC01CD010E944900DC0180
:10333000CB019E838D830FC080E991E09C838B83BA
:103340008B819C810197F1F79C838B838D819E817A
:1033500001979E838D838D819E81009769F714C0AC
:103360006F81788589859A850E944900DC01CB01AF
:103370009E838D838D819E819A83898389819A81A1
:103380000197F1F79A83898380E06F850E94861701
:1033900093E18F85981B80E0692F0E9486178F85A7
:1033A0008F5F8F878F85893008F467CF88E792E039
:1033B00060E040E02F850E94B71793E18F85292FA9
:1033C000281B88E792E060E040E00E94B71780E9A0
:1033D00092E062E041E02AE00E94B71780E992E0C3
:1033E00062E042E02AE00E94B71780E992E062E0E2
:1033F00043E02AE00E94B7172F960FB6F894DEBF7D
:103400000FBECDBFCF91DF9108950F931F93DF9330
:10341000CF93CDB7DEB7C25DD0400FB6F894DEBF14
:103420000FBECDBF81E060E00E94551784E790E0B9
:103430000E949315FE01E153FF4F80E090E0AAE760
:10344000B4E480839183A283B3838E0105531F4F1D
:10345000FE01E153FF4F608171818281938120E001
:1034600030E04AE755E40E941F02DC01CB01F8017D
:1034700080839183A283B383FE01E553FF4F608174
:1034800071818281938120E030E040E85FE30E9417
:103490002504882344F4FE01E753FF4F81E090E0C8
:1034A0009183808364C0FE01E553FF4F6081718189
:1034B0008281938120E03FEF4FE757E40E94C503EC
:1034C00018160CF043C0FE01E153FF4F608171817B
:1034D0008281938120E030E040E251E40E941F02AB
:1034E000DC01CB018E0107531F4FBC01CD010E94AF
:1034F0004900DC01CB01F801918380831FC0FE01EC
:10350000E953FF4F80E991E091838083FE01E95305
:10351000FF4F808191810197F1F7FE01E953FF4F41
:1035200091838083DE01A753BF4FFE01E753FF4F16
:1035300080819181019711969C938E93FE01E753B0
:10354000FF4F808191810097D1F627C08E010753EC
:103550001F4FFE01E553FF4F60817181828193818E
:103560000E944900DC01CB01F80191838083DE01D8
:10357000AB53BF4FFE01E753FF4F808191818D9385
:103580009C93FE01EB53FF4F808191810197F1F7EE
:10359000FE01EB53FF4F9183808381E06BE00E943B
:1035A00055178DE790E00E949315FE01EF53FF4FF2
:1035B00080E090E0AAE7B4E480839183A283B383A0
:1035C0008E0103541F4FFE01EF53FF4F6081718145
:1035D0008281938120E030E04AE755E40E941F0297
:1035E000DC01CB01F80180839183A283B383FE01C8
:1035F000E354FF4F608171818281938120E030E04C
:1036000040E85FE30E942504882344F4FE01E5546A
:10361000FF4F81E090E09183808364C0FE01E3541A
:10362000FF4F608171818281938120E03FEF4FE7FE
:1036300057E40E94C50318160CF043C0FE01EF5377
:10364000FF4F608171818281938120E030E040E210
:1036500051E40E941F02DC01CB018E0105541F4F73
:10366000BC01CD010E944900DC01CB01F80191832E
:1036700080831FC0FE01E754FF4F80E991E09183F2
:103680008083FE01E754FF4F808191810197F1F71C
:10369000FE01E754FF4F91838083DE01A554BF4FA5
:1036A000FE01E554FF4F80819181019711969C9313
:1036B0008E93FE01E554FF4F808191810097D1F6F2
:1036C00027C08E0105541F4FFE01E354FF4F608158
:1036D0007181828193810E944900DC01CB01F80154
:1036E00091838083DE01A954BF4FFE01E554FF4F53
:1036F000808191818D939C93FE01E954FF4F8081DD
:1037000091810197F1F7FE01E954FF4F9183808386
:1037100081E060E00E94551785E890E00E949315D3
:10372000FE01ED54FF4F80E090E0AAE7B4E480830F
:103730009183A283B3838E0101551F4FFE01ED5487
:10374000FF4F608171818281938120E030E04AE700
:1037500055E40E941F02DC01CB01F80180839183B4
:10376000A283B383FE01E155FF4F608171818281A5
:10377000938120E030E040E85FE30E942504882345
:1037800044F4FE01E355FF4F81E090E09183808394
:1037900064C0FE01E155FF4F608171818281938198
:1037A00020E03FEF4FE757E40E94C50318160CF0E6
:1037B00043C0FE01ED54FF4F60817181828193818E
:1037C00020E030E040E251E40E941F02DC01CB0126
:1037D0008E0103551F4FBC01CD010E944900DC0141
:1037E000CB01F801918380831FC0FE01E555FF4F97
:1037F00080E991E091838083FE01E555FF4F808150
:1038000091810197F1F7FE01E555FF4F9183808388
:10381000DE01A355BF4FFE01E355FF4F808191812B
:10382000019711969C938E93FE01E355FF4F808183
:1038300091810097D1F627C08E0103551F4FFE01DD
:10384000E155FF4F60817181828193810E9449001F
:10385000DC01CB01F80191838083DE01A755BF4FC6
:10386000FE01E355FF4F808191818D939C93FE0172
:10387000E755FF4F808191810197F1F7FE01E755F0
:10388000FF4F9183808381E060E00E9455178EE8AE
:1038900090E00E949315FE01EB55FF4F80E090E011
:1038A000AAE7B4E480839183A283B3838E010F558A
:1038B0001F4FFE01EB55FF4F608171818281938123
:1038C00020E030E04AE755E40E941F02DC01CB0112
:1038D000F80180839183A283B383FE01EF55FF4FEC
:1038E000608171818281938120E030E040E85FE374
:1038F0000E942504882344F4FE01E156FF4F81E035
:1039000090E09183808364C0FE01EF55FF4F60819A
:1039100071818281938120E03FEF4FE757E40E945D
:10392000C50318160CF043C0FE01EB55FF4F608134
:1039300071818281938120E030E040E251E40E9475
:103940001F02DC01CB018E0101561F4FBC01CD01CE
:103950000E944900DC01CB01F801918380831FC0E4
:10396000FE01E356FF4F80E991E091838083FE01E1
:10397000E356FF4F808191810197F1F7FE01E356F5
:10398000FF4F91838083DE01A156BF4FFE01E156B8
:10399000FF4F80819181019711969C938E93FE0138
:1039A000E156FF4F808191810097D1F627C08E01AB
:1039B00001561F4FFE01EF55FF4F608171818281DB
:1039C00093810E944900DC01CB01F801918380833F
:1039D000DE01A556BF4FFE01E156FF4F8081918168
:1039E0008D939C93FE01E556FF4F80819181019755
:1039F000F1F7FE01E556FF4F9183808381E06BE094
:103A00000E94551789E990E00E949315FE01E9563E
:103A1000FF4F80E090E0AAE7B4E480839183A28323
:103A2000B3838E010D561F4FFE01E956FF4F608193
:103A300071818281938120E030E04AE755E40E9461
:103A40001F02DC01CB01F80180839183A283B38341
:103A5000FE01ED56FF4F608171818281938120E0EC
:103A600030E040E85FE30E942504882344F4FE012F
:103A7000EF56FF4F81E090E09183808364C0FE01A8
:103A8000ED56FF4F608171818281938120E03FEF8D
:103A90004FE757E40E94C50318160CF043C0FE011F
:103AA000E956FF4F608171818281938120E030E08F
:103AB00040E251E40E941F02DC01CB018E010F564F
:103AC0001F4FBC01CD010E944900DC01CB01F80170
:103AD000918380831FC0FE01E157FF4F80E991E091
:103AE00091838083FE01E157FF4F8081918101978F
:103AF000F1F7FE01E157FF4F91838083DE01AF565E
:103B0000BF4FFE01EF56FF4F8081918101971196C3
:103B10009C938E93FE01EF56FF4F80819181009719
:103B2000D1F627C08E010F561F4FFE01ED56FF4FF5
:103B300060817181828193810E944900DC01CB0107
:103B4000F80191838083DE01A357BF4FFE01EF563A
:103B5000FF4F808191818D939C93FE01E357FF4F2E
:103B6000808191810197F1F7FE01E357FF4F918327
:103B7000808381E06BE00E94551784EA90E00E9408
:103B8000931582E06BE00E9455178EEA90E00E9448
:103B90009315FE01E757FF4F80E090E0AAE7B4E4F9
:103BA00080839183A283B3838E010B571F4FFE0145
:103BB000E757FF4F608171818281938120E030E07F
:103BC0004AE755E40E941F02DC01CB01F801808323
:103BD0009183A283B383FE01EB57FF4F6081718114
:103BE0008281938120E030E040E85FE30E94250479
:103BF000882344F4FE01ED57FF4F81E090E091836C
:103C0000808364C0FE01EB57FF4F60817181828128
:103C1000938120E03FEF4FE757E40E94C503181659
:103C20000CF043C0FE01E757FF4F60817181828134
:103C3000938120E030E040E251E40E941F02DC0169
:103C4000CB018E010D571F4FBC01CD010E944900D1
:103C5000DC01CB01F801918380831FC0FE01EF5787
:103C6000FF4F80E991E091838083FE01EF57FF4F82
:103C7000808191810197F1F7FE01EF57FF4F91830A
:103C80008083DE01AD57BF4FFE01ED57FF4F8081AE
:103C90009181019711969C938E93FE01ED57FF4FF2
:103CA000808191810097D1F627C08E010D571F4F5B
:103CB000FE01EB57FF4F60817181828193810E94E9
:103CC0004900DC01CB01F80191838083DE01A1581A
:103CD000BF4FFE01ED57FF4F808191818D939C93E3
:103CE000FE01E158FF4F808191810197F1F7FE01BC
:103CF000E158FF4F9183808381E06BE00E9455176C
:103D000088EB90E00E94931582E063E10E9499178E
:103D100080E992E062E042E02AE00E94B71781E089
:103D200060E00E9455178EEB90E00E949315FE0113
:103D3000E558FF4F80E090E0AAE7B4E480839183E8
:103D4000A283B3838E0109581F4FFE01E558FF4F30
:103D5000608171818281938120E030E04AE755E4FF
:103D60000E941F02DC01CB01F80180839183A283B2
:103D7000B383FE01E958FF4F608171818281938195
:103D800020E030E040E85FE30E942504882344F40B
:103D9000FE01EB58FF4F81E090E09183808364C087
:103DA000FE01E958FF4F608171818281938120E09B
:103DB0003FEF4FE757E40E94C50318160CF043C0CD
:103DC000FE01E558FF4F608171818281938120E07F
:103DD00030E040E251E40E941F02DC01CB018E0181
:103DE0000B581F4FBC01CD010E944900DC01CB01E3
:103DF000F801918380831FC0FE01ED58FF4F80E9D9
:103E000091E091838083FE01ED58FF4F8081918185
:103E10000197F1F7FE01ED58FF4F91838083DE019A
:103E2000AB58BF4FFE01EB58FF4F80819181019746
:103E300011969C938E93FE01EB58FF4F80819181E8
:103E40000097D1F627C08E010B581F4FFE01E9588D
:103E5000FF4F60817181828193810E944900DC0162
:103E6000CB01F80191838083DE01AF58BF4FFE0183
:103E7000EB58FF4F808191818D939C93FE01EF5809
:103E8000FF4F808191810197F1F7FE01EF58FF4FBD
:103E90009183808381E06BE00E94551789EC90E06C
:103EA0000E949315FE01E359FF4F80E090E0AAE7DE
:103EB000B4E480839183A283B3838E0107591F4F9B
:103EC000FE01E359FF4F608171818281938120E07F
:103ED00030E04AE755E40E941F02DC01CB01F80103
:103EE00080839183A283B383FE01E759FF4F6081F2
:103EF00071818281938120E030E040E85FE30E949D
:103F00002504882344F4FE01E959FF4F81E090E045
:103F10009183808364C0FE01E759FF4F6081718106
:103F20008281938120E03FEF4FE757E40E94C50371
:103F300018160CF043C0FE01E359FF4F60817181F8
:103F40008281938120E030E040E251E40E941F0230
:103F5000DC01CB018E0109591F4FBC01CD010E942C
:103F60004900DC01CB01F801918380831FC0FE0171
:103F7000EB59FF4F80E991E091838083FE01EB597B
:103F8000FF4F808191810197F1F7FE01EB59FF4FBF
:103F900091838083DE01A959BF4FFE01E959FF4F8C
:103FA00080819181019711969C938E93FE01E9592E
:103FB000FF4F808191810097D1F627C08E0109596A
:103FC0001F4FFE01E759FF4F60817181828193810C
:103FD0000E944900DC01CB01F80191838083DE015E
:103FE000AD59BF4FFE01E959FF4F808191818D93FB
:103FF0009C93FE01ED59FF4F808191810197F1F76C
:10400000FE01ED59FF4F9183808381E060E00E94C3
:10401000551783ED90E00E949315FE01E15AFF4F82
:1040200080E090E0AAE7B4E480839183A283B38325
:104030008E01055A1F4FFE01E15AFF4F60817181C9
:104040008281938120E030E04AE755E40E941F021C
:10405000DC01CB01F80180839183A283B383FE014D
:10406000E55AFF4F608171818281938120E030E0C9
:1040700040E85FE30E942504882344F4FE01E75AE8
:10408000FF4F81E090E09183808364C0FE01E55A98
:10409000FF4F608171818281938120E03FEF4FE784
:1040A00057E40E94C50318160CF043C0FE01E15A04
:1040B000FF4F608171818281938120E030E040E296
:1040C00051E40E941F02DC01CB018E01075A1F4FF1
:1040D000BC01CD010E944900DC01CB01F8019183B4
:1040E00080831FC0FE01E95AFF4F80E991E0918370
:1040F0008083FE01E95AFF4F808191810197F1F79A
:10410000FE01E95AFF4F91838083DE01A75ABF4F1A
:10411000FE01E75AFF4F80819181019711969C9390
:104120008E93FE01E75AFF4F808191810097D1F66F
:1041300027C08E01075A1F4FFE01E55AFF4F6081CD
:104140007181828193810E944900DC01CB01F801D9
:1041500091838083DE01AB5ABF4FFE01E75AFF4FC8
:10416000808191818D939C93FE01EB5AFF4F80815A
:1041700091810197F1F7FE01EB5AFF4F9183808304
:1041800081E06BE00E9455178DED90E00E94931541
:10419000FE01EF5AFF4F80E090E0AAE7B4E480838D
:1041A0009183A283B3838E01035B1F4FFE01EF5AFD
:1041B000FF4F608171818281938120E030E04AE786
:1041C00055E40E941F02DC01CB01F801808391833A
:1041D000A283B383FE01E35BFF4F60817181828123
:1041E000938120E030E040E85FE30E9425048823CB
:1041F00044F4FE01E55BFF4F81E090E09183808312
:1042000064C0FE01E35BFF4F608171818281938115
:1042100020E03FEF4FE757E40E94C50318160CF06B
:1042200043C0FE01EF5AFF4F60817181828193810B
:1042300020E030E040E251E40E941F02DC01CB01AB
:104240008E01055B1F4FBC01CD010E944900DC01BE
:10425000CB01F801918380831FC0FE01E75BFF4F14
:1042600080E991E091838083FE01E75BFF4F8081CD
:1042700091810197F1F7FE01E75BFF4F9183808306
:10428000DE01A55BBF4FFE01E55BFF4F80819181A1
:10429000019711969C938E93FE01E55BFF4F808101
:1042A00091810097D1F627C08E01055B1F4FFE015B
:1042B000E35BFF4F60817181828193810E9449009D
:1042C000DC01CB01F80191838083DE01A95BBF4F44
:1042D000FE01E55BFF4F808191818D939C93FE01F0
:1042E000E95BFF4F808191810197F1F7FE01E95B66
:1042F000FF4F9183808381E060E00E94551786EE36
:1043000090E00E949315FE01ED5BFF4F80E090E08E
:10431000AAE7B4E480839183A283B3838E01015C16
:104320001F4FFE01ED5BFF4F6081718182819381A0
:1043300020E030E04AE755E40E941F02DC01CB0197
:10434000F80180839183A283B383FE01FF9660818D
:1043500071818281938120E030E040E85FE30E9438
:10436000250488232CF481E090E09EAF8DAF46C0F9
:10437000FE01FF96608171818281938120E03FEF91
:104380004FE757E40E94C503181664F5FE01ED5B84
:10439000FF4F608171818281938120E030E040E2B3
:1043A00051E40E941F02DC01CB01BC01CD010E943F
:1043B0004900DC01CB019EAF8DAF0FC080E991E0D9
:1043C0009CAF8BAF8BAD9CAD0197F1F79CAF8BAFE2
:1043D0008DAD9EAD01979EAF8DAF8DAD9EAD00971B
:1043E00069F716C0FE01FF96608171818281938119
:1043F0000E944900DC01CB019EAF8DAF8DAD9EAD1B
:104400009AAF89AF89AD9AAD0197F1F79AAF89AFAD
:1044100081E06BE00E94551780EF90E00E949315B9
:1044200080E090E0AAE7B4E48DAB9EABAFABB8AF51
:104430006DA97EA98FA998AD20E030E04AE755E448
:104440000E941F02DC01CB0189AB9AABABABBCABCA
:1044500069A97AA98BA99CA920E030E040E85FE334
:104460000E94250488232CF481E090E098AB8FA76C
:104470003FC069A97AA98BA99CA920E03FEF4FE72B
:1044800057E40E94C50318164CF56DA97EA98FA9A3
:1044900098AD20E030E040E251E40E941F02DC01D0
:1044A000CB01BC01CD010E944900DC01CB0198ABDE
:1044B0008FA70FC080E991E09EA78DA78DA59EA52F
:1044C0000197F1F79EA78DA78FA598A9019798ABA3
:1044D0008FA78FA598A9009769F714C069A97AA931
:1044E0008BA99CA90E944900DC01CB0198AB8FA746
:1044F0008FA598A99CA78BA78BA59CA50197F1F7E1
:104500009CA78BA781E060E00E9455178AEF90E09E
:104510000E94931580E090E0AAE7B4E48FA398A7E7
:10452000A9A7BAA76FA178A589A59AA520E030E030
:104530004AE755E40E941F02DC01CB018BA39CA338
:10454000ADA3BEA36BA17CA18DA19EA120E030E014
:1045500040E85FE30E94250488232CF481E090E08A
:104560009AA389A33FC06BA17CA18DA19EA120E04D
:104570003FEF4FE757E40E94C50318164CF56FA1B3
:1045800078A589A59AA520E030E040E251E40E9498
:104590001F02DC01CB01BC01CD010E944900DC01FE
:1045A000CB019AA389A30FC080E991E098A38F8FD4
:1045B0008F8D98A10197F1F798A38F8F89A19AA168
:1045C00001979AA389A389A19AA1009769F714C0BA
:1045D0006BA17CA18DA19EA10E944900DC01CB01B1
:1045E0009AA389A389A19AA19E8F8D8F8D8D9E8D6F
:1045F0000197F1F79E8F8D8F81E06BE00E94551738
:1046000084E091E00E94931582E06BE00E945517D0
:104610008EE091E00E94931583E06BE00E945517B5
:1046200088E191E00E94931580E090E0AAE7B4E46D
:10463000898F9A8FAB8FBC8F698D7A8D8B8D9C8D76
:1046400020E030E04AE755E40E941F02DC01CB0184
:104650008D8B9E8BAF8BB88F6D897E898F89988D5E
:1046600020E030E040E85FE30E94250488232CF43A
:1046700081E090E09C8B8B8B3FC06D897E898F8918
:10468000988D20E03FEF4FE757E40E94C5031816CE
:104690004CF5698D7A8D8B8D9C8D20E030E040E269
:1046A00051E40E941F02DC01CB01BC01CD010E943C
:1046B0004900DC01CB019C8B8B8B0FC080E991E022
:1046C0009A8B898B89899A890197F1F79A8B898BC3
:1046D0008B899C8901979C8B8B8B8B899C890097FC
:1046E00069F714C06D897E898F89988D0E94490071
:1046F000DC01CB019C8B8B8B8B899C89988B8F8762
:104700008F8598890197F1F7988B8F8781E06BE00F
:104710000E94551782E291E00E94931582E063E1C6
:104720000E94991783E063E10E94991780E992E063
:1047300062E042E02AE00E94B71780E992E062E07E
:1047400043E02AE00E94B71781E060E00E9455171D
:104750008CE291E00E94931582E060E00E94551780
:1047600086E391E00E94931580E090E0AAE7B4E42C
:104770008B879C87AD87BE876B857C858D859E8565
:1047800020E030E04AE755E40E941F02DC01CB0143
:104790008F839887A987BA876F81788589859A855D
:1047A00020E030E040E85FE30E94250488232CF4F9
:1047B00081E090E09E838D833FC06F8178858985FD
:1047C0009A8520E03FEF4FE757E40E94C503181693
:1047D0004CF56B857C858D859E8520E030E040E240
:1047E00051E40E941F02DC01CB01BC01CD010E94FB
:1047F0004900DC01CB019E838D830FC080E991E0ED
:104800009C838B838B819C810197F1F79C838B83A5
:104810008D819E8101979E838D838D819E810097DE
:1048200069F714C06F81788589859A850E9449004F
:10483000DC01CB019E838D838D819E819A83898348
:1048400089819A810197F1F79A83898382E063E1F4
:104850000E94991783E063E10E94991780E992E032
:1048600062E042E02AE00E94B71780E992E062E04D
:1048700043E02AE00E94B717CE52DF4F0FB6F894FC
:10488000DEBF0FBECDBFCF91DF911F910F91089575
:10489000DF93CF93CDB7DEB72F970FB6F894DEBF77
:1048A0000FBECDBF0E9417070E94F30C80E060E0AE
:1048B0000E9455178FE391E00E94931587E08F8740
:1048C00080C088E792E060E041E02F850E94B71742
:1048D00080E090E0A6E1B3E48B879C87AD87BE873C
:1048E0006B857C858D859E8520E030E04AE755E428
:1048F0000E941F02DC01CB018F839887A987BA87AA
:104900006F81788589859A8520E030E040E85FE313
:104910000E94250488232CF481E090E09E838D83FF
:104920003FC06F81788589859A8520E03FEF4FE70A
:1049300057E40E94C50318164CF56B857C858D8560
:104940009E8520E030E040E251E40E941F02DC013D
:10495000CB01BC01CD010E944900DC01CB019E834B
:104960008D830FC080E991E09C838B838B819C8138
:104970000197F1F79C838B838D819E8101979E83A4
:104980008D838D819E81009769F714C06F81788532
:1049900089859A850E944900DC01CB019E838D8325
:1049A0008D819E819A83898389819A810197F1F70C
:1049B0009A83898381E06F850E9486178F858F5F38
:1049C0008F878F858D3008F47CCF80E063E10E9473
:1049D000991781E063E10E9499170E9432190E94A1
:1049E000051A0E94041881E00E94F31281E062E03F
:1049F0000E94551784E591E00E94931582E066E0DD
:104A00000E94551785E691E00E949315FFCF629FA3
:104A1000D001739FF001829FE00DF11D649FE00DB6
:104A2000F11D929FF00D839FF00D749FF00D659F17
:104A3000F00D9927729FB00DE11DF91F639FB00D16
:104A4000E11DF91FBD01CF011124089597FB092E27
:104A500005260ED057FD04D014D00AD0001C38F41F
:104A600050954095309521953F4F4F4F5F4F08959A
:104A7000F6F790958095709561957F4F8F4F9F4F7A
:104A80000895A1E21A2EAA1BBB1BFD010DC0AA1F8F
:104A9000BB1FEE1FFF1FA217B307E407F50720F0A7
:104AA000A21BB30BE40BF50B661F771F881F991F22
:104AB0001A9469F760957095809590959B01AC016B
:104AC000BD01CF0108952F923F924F925F926F9256
:104AD0007F928F929F92AF92BF92CF92DF92EF928E
:104AE000FF920F931F93CF93DF93CDB7DEB7CA1B0F
:104AF000DB0B0FB6F894DEBF0FBECDBF09942A883A
:104B0000398848885F846E847D848C849B84AA84E1
:104B1000B984C884DF80EE80FD800C811B81AA816E
:104B2000B981CE0FD11D0FB6F894DEBF0FBECDBF39
:084B3000ED010895F894FFCF98
:104B3800356F642079616C616100356F642074336E
:104B48006C61610045682064612E2E2E00456E74EC
:104B580061206D6E00416E61206D6E212000656ED2
:104B6800746120656C206D6E006168686820202083
:104B780020202000656E74612020202020006D61B7
:104B880074337266342020002020202020006C61BD
:104B980032206D6E20202020006E6120377A6C3222
:104BA8006F6D00377A6C326F6D206D6E00377A6CDE
:104BB800326F6D6D6D0061797761206D65656E008E
:104BC800616E6120656C2E2E2E00656C2065682153
:104BD80020202000656C2075706461746500627423
:104BE800336B2066652020004E5449202020202069
:104BF800200020202020202020202000486F7761DE
:104C0800206461212100656E7461612E2E2E004D95
:104C180061726120376D6F6B3461206B616E206D3E
:104C28006134790053686F7274205361642053743F
:104C38006F72792E004C4F4C203A4400000000005F
:104C4800000000000001020203030303040404043B
:104C58000404040405050505050505050505050500
:104C680005050505060606060606060606060606E0
:104C780006060606060606060606060606060606CC
:104C880006060606070707070707070707070707B0
:104C9800070707070707070707070707070707079C
:104CA800070707070707070707070707070707078C
:104CB800070707070707070707070707070707077C
:104CC8000707070708080808080808080808080860
:104CD800080808080808080808080808080808084C
:104CE800080808080808080808080808080808083C
:104CF800080808080808080808080808080808082C
:104D0800080808080808080808080808080808081B
:104D1800080808080808080808080808080808080B
:104D280008080808080808080808080808080808FB
:104D380008080808080808080808080808080808EB
:104D4800080808080000A0400E0E041F040A0A1BE9
:104D58000E0E150E040E0A1B0E0E05060C140A1B69
:084D68001010101010101000D3
:00000001FF
